{
  "contracts/SmartCertificate.sol": {
    "Certi": {
      "abi": [
        {
          "inputs": [],
          "stateMutability": "nonpayable",
          "type": "constructor"
        },
        {
          "inputs": [
            {
              "internalType": "uint256",
              "name": "",
              "type": "uint256"
            }
          ],
          "name": "Certificate",
          "outputs": [
            {
              "internalType": "uint256",
              "name": "id",
              "type": "uint256"
            },
            {
              "internalType": "string",
              "name": "name",
              "type": "string"
            },
            {
              "internalType": "string",
              "name": "course",
              "type": "string"
            },
            {
              "internalType": "string",
              "name": "grade",
              "type": "string"
            },
            {
              "internalType": "string",
              "name": "date",
              "type": "string"
            }
          ],
          "stateMutability": "view",
          "type": "function"
        },
        {
          "inputs": [
            {
              "internalType": "uint256",
              "name": "_id",
              "type": "uint256"
            },
            {
              "internalType": "string",
              "name": "_name",
              "type": "string"
            },
            {
              "internalType": "string",
              "name": "_course",
              "type": "string"
            },
            {
              "internalType": "string",
              "name": "_grade",
              "type": "string"
            },
            {
              "internalType": "string",
              "name": "_date",
              "type": "string"
            }
          ],
          "name": "Issue",
          "outputs": [],
          "stateMutability": "nonpayable",
          "type": "function"
        }
      ],
      "evm": {
        "bytecode": {
          "linkReferences": {},
          "object": "6080604052348015600f57600080fd5b50336000806101000a81548173ffffffffffffffffffffffffffffffffffffffff021916908373ffffffffffffffffffffffffffffffffffffffff160217905550610b3a8061005f6000396000f3fe608060405234801561001057600080fd5b50600436106100365760003560e01c80634e9e195b1461003b578063b5b9ac321461006f575b600080fd5b6100556004803603810190610050919061045f565b61008b565b60405161006695949392919061052b565b60405180910390f35b610089600480360381019061008491906106cf565b6102e1565b005b60016020528060005260406000206000915090508060000154908060010180546100b4906107e9565b80601f01602080910402602001604051908101604052809291908181526020018280546100e0906107e9565b801561012d5780601f106101025761010080835404028352916020019161012d565b820191906000526020600020905b81548152906001019060200180831161011057829003601f168201915b505050505090806002018054610142906107e9565b80601f016020809104026020016040519081016040528092919081815260200182805461016e906107e9565b80156101bb5780601f10610190576101008083540402835291602001916101bb565b820191906000526020600020905b81548152906001019060200180831161019e57829003601f168201915b5050505050908060030180546101d0906107e9565b80601f01602080910402602001604051908101604052809291908181526020018280546101fc906107e9565b80156102495780601f1061021e57610100808354040283529160200191610249565b820191906000526020600020905b81548152906001019060200180831161022c57829003601f168201915b50505050509080600401805461025e906107e9565b80601f016020809104026020016040519081016040528092919081815260200182805461028a906107e9565b80156102d75780601f106102ac576101008083540402835291602001916102d7565b820191906000526020600020905b8154815290600101906020018083116102ba57829003601f168201915b5050505050905085565b60008054906101000a900473ffffffffffffffffffffffffffffffffffffffff1673ffffffffffffffffffffffffffffffffffffffff163373ffffffffffffffffffffffffffffffffffffffff161461036f576040517f08c379a000000000000000000000000000000000000000000000000000000000815260040161036690610866565b60405180910390fd5b6040518060a0016040528086815260200185815260200184815260200183815260200182815250600160008781526020019081526020016000206000820151816000015560208201518160010190816103c89190610a32565b5060408201518160020190816103de9190610a32565b5060608201518160030190816103f49190610a32565b50608082015181600401908161040a9190610a32565b509050505050505050565b6000604051905090565b600080fd5b600080fd5b6000819050919050565b61043c81610429565b811461044757600080fd5b50565b60008135905061045981610433565b92915050565b6000602082840312156104755761047461041f565b5b60006104838482850161044a565b91505092915050565b61049581610429565b82525050565b600081519050919050565b600082825260208201905092915050565b60005b838110156104d55780820151818401526020810190506104ba565b60008484015250505050565b6000601f19601f8301169050919050565b60006104fd8261049b565b61050781856104a6565b93506105178185602086016104b7565b610520816104e1565b840191505092915050565b600060a082019050610540600083018861048c565b818103602083015261055281876104f2565b9050818103604083015261056681866104f2565b9050818103606083015261057a81856104f2565b9050818103608083015261058e81846104f2565b90509695505050505050565b600080fd5b600080fd5b7f4e487b7100000000000000000000000000000000000000000000000000000000600052604160045260246000fd5b6105dc826104e1565b810181811067ffffffffffffffff821117156105fb576105fa6105a4565b5b80604052505050565b600061060e610415565b905061061a82826105d3565b919050565b600067ffffffffffffffff82111561063a576106396105a4565b5b610643826104e1565b9050602081019050919050565b82818337600083830152505050565b600061067261066d8461061f565b610604565b90508281526020810184848401111561068e5761068d61059f565b5b610699848285610650565b509392505050565b600082601f8301126106b6576106b561059a565b5b81356106c684826020860161065f565b91505092915050565b600080600080600060a086880312156106eb576106ea61041f565b5b60006106f98882890161044a565b955050602086013567ffffffffffffffff81111561071a57610719610424565b5b610726888289016106a1565b945050604086013567ffffffffffffffff81111561074757610746610424565b5b610753888289016106a1565b935050606086013567ffffffffffffffff81111561077457610773610424565b5b610780888289016106a1565b925050608086013567ffffffffffffffff8111156107a1576107a0610424565b5b6107ad888289016106a1565b9150509295509295909350565b7f4e487b7100000000000000000000000000000000000000000000000000000000600052602260045260246000fd5b6000600282049050600182168061080157607f821691505b602082108103610814576108136107ba565b5b50919050565b7f4f6e6c792061646d696e20686176652061636573730000000000000000000000600082015250565b60006108506015836104a6565b915061085b8261081a565b602082019050919050565b6000602082019050818103600083015261087f81610843565b9050919050565b60008190508160005260206000209050919050565b60006020601f8301049050919050565b600082821b905092915050565b6000600883026108e87fffffffffffffffffffffffffffffffffffffffffffffffffffffffffffffffff826108ab565b6108f286836108ab565b95508019841693508086168417925050509392505050565b6000819050919050565b600061092f61092a61092584610429565b61090a565b610429565b9050919050565b6000819050919050565b61094983610914565b61095d61095582610936565b8484546108b8565b825550505050565b600090565b610972610965565b61097d818484610940565b505050565b5b818110156109a15761099660008261096a565b600181019050610983565b5050565b601f8211156109e6576109b781610886565b6109c08461089b565b810160208510156109cf578190505b6109e36109db8561089b565b830182610982565b50505b505050565b600082821c905092915050565b6000610a09600019846008026109eb565b1980831691505092915050565b6000610a2283836109f8565b9150826002028217905092915050565b610a3b8261049b565b67ffffffffffffffff811115610a5457610a536105a4565b5b610a5e82546107e9565b610a698282856109a5565b600060209050601f831160018114610a9c5760008415610a8a578287015190505b610a948582610a16565b865550610afc565b601f198416610aaa86610886565b60005b82811015610ad257848901518255600182019150602085019450602081019050610aad565b86831015610aef5784890151610aeb601f8916826109f8565b8355505b6001600288020188555050505b50505050505056fea2646970667358221220a019d94dd1095b54932d186343d0bb7f525f36c09a6361f8edd7e12aad0dd29f64736f6c634300081c0033",
          "opcodes": "PUSH1 0x80 PUSH1 0x40 MSTORE CALLVALUE DUP1 ISZERO PUSH1 0xF JUMPI PUSH1 0x0 DUP1 REVERT JUMPDEST POP CALLER PUSH1 0x0 DUP1 PUSH2 0x100 EXP DUP2 SLOAD DUP2 PUSH20 0xFFFFFFFFFFFFFFFFFFFFFFFFFFFFFFFFFFFFFFFF MUL NOT AND SWAP1 DUP4 PUSH20 0xFFFFFFFFFFFFFFFFFFFFFFFFFFFFFFFFFFFFFFFF AND MUL OR SWAP1 SSTORE POP PUSH2 0xB3A DUP1 PUSH2 0x5F PUSH1 0x0 CODECOPY PUSH1 0x0 RETURN INVALID PUSH1 0x80 PUSH1 0x40 MSTORE CALLVALUE DUP1 ISZERO PUSH2 0x10 JUMPI PUSH1 0x0 DUP1 REVERT JUMPDEST POP PUSH1 0x4 CALLDATASIZE LT PUSH2 0x36 JUMPI PUSH1 0x0 CALLDATALOAD PUSH1 0xE0 SHR DUP1 PUSH4 0x4E9E195B EQ PUSH2 0x3B JUMPI DUP1 PUSH4 0xB5B9AC32 EQ PUSH2 0x6F JUMPI JUMPDEST PUSH1 0x0 DUP1 REVERT JUMPDEST PUSH2 0x55 PUSH1 0x4 DUP1 CALLDATASIZE SUB DUP2 ADD SWAP1 PUSH2 0x50 SWAP2 SWAP1 PUSH2 0x45F JUMP JUMPDEST PUSH2 0x8B JUMP JUMPDEST PUSH1 0x40 MLOAD PUSH2 0x66 SWAP6 SWAP5 SWAP4 SWAP3 SWAP2 SWAP1 PUSH2 0x52B JUMP JUMPDEST PUSH1 0x40 MLOAD DUP1 SWAP2 SUB SWAP1 RETURN JUMPDEST PUSH2 0x89 PUSH1 0x4 DUP1 CALLDATASIZE SUB DUP2 ADD SWAP1 PUSH2 0x84 SWAP2 SWAP1 PUSH2 0x6CF JUMP JUMPDEST PUSH2 0x2E1 JUMP JUMPDEST STOP JUMPDEST PUSH1 0x1 PUSH1 0x20 MSTORE DUP1 PUSH1 0x0 MSTORE PUSH1 0x40 PUSH1 0x0 KECCAK256 PUSH1 0x0 SWAP2 POP SWAP1 POP DUP1 PUSH1 0x0 ADD SLOAD SWAP1 DUP1 PUSH1 0x1 ADD DUP1 SLOAD PUSH2 0xB4 SWAP1 PUSH2 0x7E9 JUMP JUMPDEST DUP1 PUSH1 0x1F ADD PUSH1 0x20 DUP1 SWAP2 DIV MUL PUSH1 0x20 ADD PUSH1 0x40 MLOAD SWAP1 DUP2 ADD PUSH1 0x40 MSTORE DUP1 SWAP3 SWAP2 SWAP1 DUP2 DUP2 MSTORE PUSH1 0x20 ADD DUP3 DUP1 SLOAD PUSH2 0xE0 SWAP1 PUSH2 0x7E9 JUMP JUMPDEST DUP1 ISZERO PUSH2 0x12D JUMPI DUP1 PUSH1 0x1F LT PUSH2 0x102 JUMPI PUSH2 0x100 DUP1 DUP4 SLOAD DIV MUL DUP4 MSTORE SWAP2 PUSH1 0x20 ADD SWAP2 PUSH2 0x12D JUMP JUMPDEST DUP3 ADD SWAP2 SWAP1 PUSH1 0x0 MSTORE PUSH1 0x20 PUSH1 0x0 KECCAK256 SWAP1 JUMPDEST DUP2 SLOAD DUP2 MSTORE SWAP1 PUSH1 0x1 ADD SWAP1 PUSH1 0x20 ADD DUP1 DUP4 GT PUSH2 0x110 JUMPI DUP3 SWAP1 SUB PUSH1 0x1F AND DUP3 ADD SWAP2 JUMPDEST POP POP POP POP POP SWAP1 DUP1 PUSH1 0x2 ADD DUP1 SLOAD PUSH2 0x142 SWAP1 PUSH2 0x7E9 JUMP JUMPDEST DUP1 PUSH1 0x1F ADD PUSH1 0x20 DUP1 SWAP2 DIV MUL PUSH1 0x20 ADD PUSH1 0x40 MLOAD SWAP1 DUP2 ADD PUSH1 0x40 MSTORE DUP1 SWAP3 SWAP2 SWAP1 DUP2 DUP2 MSTORE PUSH1 0x20 ADD DUP3 DUP1 SLOAD PUSH2 0x16E SWAP1 PUSH2 0x7E9 JUMP JUMPDEST DUP1 ISZERO PUSH2 0x1BB JUMPI DUP1 PUSH1 0x1F LT PUSH2 0x190 JUMPI PUSH2 0x100 DUP1 DUP4 SLOAD DIV MUL DUP4 MSTORE SWAP2 PUSH1 0x20 ADD SWAP2 PUSH2 0x1BB JUMP JUMPDEST DUP3 ADD SWAP2 SWAP1 PUSH1 0x0 MSTORE PUSH1 0x20 PUSH1 0x0 KECCAK256 SWAP1 JUMPDEST DUP2 SLOAD DUP2 MSTORE SWAP1 PUSH1 0x1 ADD SWAP1 PUSH1 0x20 ADD DUP1 DUP4 GT PUSH2 0x19E JUMPI DUP3 SWAP1 SUB PUSH1 0x1F AND DUP3 ADD SWAP2 JUMPDEST POP POP POP POP POP SWAP1 DUP1 PUSH1 0x3 ADD DUP1 SLOAD PUSH2 0x1D0 SWAP1 PUSH2 0x7E9 JUMP JUMPDEST DUP1 PUSH1 0x1F ADD PUSH1 0x20 DUP1 SWAP2 DIV MUL PUSH1 0x20 ADD PUSH1 0x40 MLOAD SWAP1 DUP2 ADD PUSH1 0x40 MSTORE DUP1 SWAP3 SWAP2 SWAP1 DUP2 DUP2 MSTORE PUSH1 0x20 ADD DUP3 DUP1 SLOAD PUSH2 0x1FC SWAP1 PUSH2 0x7E9 JUMP JUMPDEST DUP1 ISZERO PUSH2 0x249 JUMPI DUP1 PUSH1 0x1F LT PUSH2 0x21E JUMPI PUSH2 0x100 DUP1 DUP4 SLOAD DIV MUL DUP4 MSTORE SWAP2 PUSH1 0x20 ADD SWAP2 PUSH2 0x249 JUMP JUMPDEST DUP3 ADD SWAP2 SWAP1 PUSH1 0x0 MSTORE PUSH1 0x20 PUSH1 0x0 KECCAK256 SWAP1 JUMPDEST DUP2 SLOAD DUP2 MSTORE SWAP1 PUSH1 0x1 ADD SWAP1 PUSH1 0x20 ADD DUP1 DUP4 GT PUSH2 0x22C JUMPI DUP3 SWAP1 SUB PUSH1 0x1F AND DUP3 ADD SWAP2 JUMPDEST POP POP POP POP POP SWAP1 DUP1 PUSH1 0x4 ADD DUP1 SLOAD PUSH2 0x25E SWAP1 PUSH2 0x7E9 JUMP JUMPDEST DUP1 PUSH1 0x1F ADD PUSH1 0x20 DUP1 SWAP2 DIV MUL PUSH1 0x20 ADD PUSH1 0x40 MLOAD SWAP1 DUP2 ADD PUSH1 0x40 MSTORE DUP1 SWAP3 SWAP2 SWAP1 DUP2 DUP2 MSTORE PUSH1 0x20 ADD DUP3 DUP1 SLOAD PUSH2 0x28A SWAP1 PUSH2 0x7E9 JUMP JUMPDEST DUP1 ISZERO PUSH2 0x2D7 JUMPI DUP1 PUSH1 0x1F LT PUSH2 0x2AC JUMPI PUSH2 0x100 DUP1 DUP4 SLOAD DIV MUL DUP4 MSTORE SWAP2 PUSH1 0x20 ADD SWAP2 PUSH2 0x2D7 JUMP JUMPDEST DUP3 ADD SWAP2 SWAP1 PUSH1 0x0 MSTORE PUSH1 0x20 PUSH1 0x0 KECCAK256 SWAP1 JUMPDEST DUP2 SLOAD DUP2 MSTORE SWAP1 PUSH1 0x1 ADD SWAP1 PUSH1 0x20 ADD DUP1 DUP4 GT PUSH2 0x2BA JUMPI DUP3 SWAP1 SUB PUSH1 0x1F AND DUP3 ADD SWAP2 JUMPDEST POP POP POP POP POP SWAP1 POP DUP6 JUMP JUMPDEST PUSH1 0x0 DUP1 SLOAD SWAP1 PUSH2 0x100 EXP SWAP1 DIV PUSH20 0xFFFFFFFFFFFFFFFFFFFFFFFFFFFFFFFFFFFFFFFF AND PUSH20 0xFFFFFFFFFFFFFFFFFFFFFFFFFFFFFFFFFFFFFFFF AND CALLER PUSH20 0xFFFFFFFFFFFFFFFFFFFFFFFFFFFFFFFFFFFFFFFF AND EQ PUSH2 0x36F JUMPI PUSH1 0x40 MLOAD PUSH32 0x8C379A000000000000000000000000000000000000000000000000000000000 DUP2 MSTORE PUSH1 0x4 ADD PUSH2 0x366 SWAP1 PUSH2 0x866 JUMP JUMPDEST PUSH1 0x40 MLOAD DUP1 SWAP2 SUB SWAP1 REVERT JUMPDEST PUSH1 0x40 MLOAD DUP1 PUSH1 0xA0 ADD PUSH1 0x40 MSTORE DUP1 DUP7 DUP2 MSTORE PUSH1 0x20 ADD DUP6 DUP2 MSTORE PUSH1 0x20 ADD DUP5 DUP2 MSTORE PUSH1 0x20 ADD DUP4 DUP2 MSTORE PUSH1 0x20 ADD DUP3 DUP2 MSTORE POP PUSH1 0x1 PUSH1 0x0 DUP8 DUP2 MSTORE PUSH1 0x20 ADD SWAP1 DUP2 MSTORE PUSH1 0x20 ADD PUSH1 0x0 KECCAK256 PUSH1 0x0 DUP3 ADD MLOAD DUP2 PUSH1 0x0 ADD SSTORE PUSH1 0x20 DUP3 ADD MLOAD DUP2 PUSH1 0x1 ADD SWAP1 DUP2 PUSH2 0x3C8 SWAP2 SWAP1 PUSH2 0xA32 JUMP JUMPDEST POP PUSH1 0x40 DUP3 ADD MLOAD DUP2 PUSH1 0x2 ADD SWAP1 DUP2 PUSH2 0x3DE SWAP2 SWAP1 PUSH2 0xA32 JUMP JUMPDEST POP PUSH1 0x60 DUP3 ADD MLOAD DUP2 PUSH1 0x3 ADD SWAP1 DUP2 PUSH2 0x3F4 SWAP2 SWAP1 PUSH2 0xA32 JUMP JUMPDEST POP PUSH1 0x80 DUP3 ADD MLOAD DUP2 PUSH1 0x4 ADD SWAP1 DUP2 PUSH2 0x40A SWAP2 SWAP1 PUSH2 0xA32 JUMP JUMPDEST POP SWAP1 POP POP POP POP POP POP POP JUMP JUMPDEST PUSH1 0x0 PUSH1 0x40 MLOAD SWAP1 POP SWAP1 JUMP JUMPDEST PUSH1 0x0 DUP1 REVERT JUMPDEST PUSH1 0x0 DUP1 REVERT JUMPDEST PUSH1 0x0 DUP2 SWAP1 POP SWAP2 SWAP1 POP JUMP JUMPDEST PUSH2 0x43C DUP2 PUSH2 0x429 JUMP JUMPDEST DUP2 EQ PUSH2 0x447 JUMPI PUSH1 0x0 DUP1 REVERT JUMPDEST POP JUMP JUMPDEST PUSH1 0x0 DUP2 CALLDATALOAD SWAP1 POP PUSH2 0x459 DUP2 PUSH2 0x433 JUMP JUMPDEST SWAP3 SWAP2 POP POP JUMP JUMPDEST PUSH1 0x0 PUSH1 0x20 DUP3 DUP5 SUB SLT ISZERO PUSH2 0x475 JUMPI PUSH2 0x474 PUSH2 0x41F JUMP JUMPDEST JUMPDEST PUSH1 0x0 PUSH2 0x483 DUP5 DUP3 DUP6 ADD PUSH2 0x44A JUMP JUMPDEST SWAP2 POP POP SWAP3 SWAP2 POP POP JUMP JUMPDEST PUSH2 0x495 DUP2 PUSH2 0x429 JUMP JUMPDEST DUP3 MSTORE POP POP JUMP JUMPDEST PUSH1 0x0 DUP2 MLOAD SWAP1 POP SWAP2 SWAP1 POP JUMP JUMPDEST PUSH1 0x0 DUP3 DUP3 MSTORE PUSH1 0x20 DUP3 ADD SWAP1 POP SWAP3 SWAP2 POP POP JUMP JUMPDEST PUSH1 0x0 JUMPDEST DUP4 DUP2 LT ISZERO PUSH2 0x4D5 JUMPI DUP1 DUP3 ADD MLOAD DUP2 DUP5 ADD MSTORE PUSH1 0x20 DUP2 ADD SWAP1 POP PUSH2 0x4BA JUMP JUMPDEST PUSH1 0x0 DUP5 DUP5 ADD MSTORE POP POP POP POP JUMP JUMPDEST PUSH1 0x0 PUSH1 0x1F NOT PUSH1 0x1F DUP4 ADD AND SWAP1 POP SWAP2 SWAP1 POP JUMP JUMPDEST PUSH1 0x0 PUSH2 0x4FD DUP3 PUSH2 0x49B JUMP JUMPDEST PUSH2 0x507 DUP2 DUP6 PUSH2 0x4A6 JUMP JUMPDEST SWAP4 POP PUSH2 0x517 DUP2 DUP6 PUSH1 0x20 DUP7 ADD PUSH2 0x4B7 JUMP JUMPDEST PUSH2 0x520 DUP2 PUSH2 0x4E1 JUMP JUMPDEST DUP5 ADD SWAP2 POP POP SWAP3 SWAP2 POP POP JUMP JUMPDEST PUSH1 0x0 PUSH1 0xA0 DUP3 ADD SWAP1 POP PUSH2 0x540 PUSH1 0x0 DUP4 ADD DUP9 PUSH2 0x48C JUMP JUMPDEST DUP2 DUP2 SUB PUSH1 0x20 DUP4 ADD MSTORE PUSH2 0x552 DUP2 DUP8 PUSH2 0x4F2 JUMP JUMPDEST SWAP1 POP DUP2 DUP2 SUB PUSH1 0x40 DUP4 ADD MSTORE PUSH2 0x566 DUP2 DUP7 PUSH2 0x4F2 JUMP JUMPDEST SWAP1 POP DUP2 DUP2 SUB PUSH1 0x60 DUP4 ADD MSTORE PUSH2 0x57A DUP2 DUP6 PUSH2 0x4F2 JUMP JUMPDEST SWAP1 POP DUP2 DUP2 SUB PUSH1 0x80 DUP4 ADD MSTORE PUSH2 0x58E DUP2 DUP5 PUSH2 0x4F2 JUMP JUMPDEST SWAP1 POP SWAP7 SWAP6 POP POP POP POP POP POP JUMP JUMPDEST PUSH1 0x0 DUP1 REVERT JUMPDEST PUSH1 0x0 DUP1 REVERT JUMPDEST PUSH32 0x4E487B7100000000000000000000000000000000000000000000000000000000 PUSH1 0x0 MSTORE PUSH1 0x41 PUSH1 0x4 MSTORE PUSH1 0x24 PUSH1 0x0 REVERT JUMPDEST PUSH2 0x5DC DUP3 PUSH2 0x4E1 JUMP JUMPDEST DUP2 ADD DUP2 DUP2 LT PUSH8 0xFFFFFFFFFFFFFFFF DUP3 GT OR ISZERO PUSH2 0x5FB JUMPI PUSH2 0x5FA PUSH2 0x5A4 JUMP JUMPDEST JUMPDEST DUP1 PUSH1 0x40 MSTORE POP POP POP JUMP JUMPDEST PUSH1 0x0 PUSH2 0x60E PUSH2 0x415 JUMP JUMPDEST SWAP1 POP PUSH2 0x61A DUP3 DUP3 PUSH2 0x5D3 JUMP JUMPDEST SWAP2 SWAP1 POP JUMP JUMPDEST PUSH1 0x0 PUSH8 0xFFFFFFFFFFFFFFFF DUP3 GT ISZERO PUSH2 0x63A JUMPI PUSH2 0x639 PUSH2 0x5A4 JUMP JUMPDEST JUMPDEST PUSH2 0x643 DUP3 PUSH2 0x4E1 JUMP JUMPDEST SWAP1 POP PUSH1 0x20 DUP2 ADD SWAP1 POP SWAP2 SWAP1 POP JUMP JUMPDEST DUP3 DUP2 DUP4 CALLDATACOPY PUSH1 0x0 DUP4 DUP4 ADD MSTORE POP POP POP JUMP JUMPDEST PUSH1 0x0 PUSH2 0x672 PUSH2 0x66D DUP5 PUSH2 0x61F JUMP JUMPDEST PUSH2 0x604 JUMP JUMPDEST SWAP1 POP DUP3 DUP2 MSTORE PUSH1 0x20 DUP2 ADD DUP5 DUP5 DUP5 ADD GT ISZERO PUSH2 0x68E JUMPI PUSH2 0x68D PUSH2 0x59F JUMP JUMPDEST JUMPDEST PUSH2 0x699 DUP5 DUP3 DUP6 PUSH2 0x650 JUMP JUMPDEST POP SWAP4 SWAP3 POP POP POP JUMP JUMPDEST PUSH1 0x0 DUP3 PUSH1 0x1F DUP4 ADD SLT PUSH2 0x6B6 JUMPI PUSH2 0x6B5 PUSH2 0x59A JUMP JUMPDEST JUMPDEST DUP2 CALLDATALOAD PUSH2 0x6C6 DUP5 DUP3 PUSH1 0x20 DUP7 ADD PUSH2 0x65F JUMP JUMPDEST SWAP2 POP POP SWAP3 SWAP2 POP POP JUMP JUMPDEST PUSH1 0x0 DUP1 PUSH1 0x0 DUP1 PUSH1 0x0 PUSH1 0xA0 DUP7 DUP9 SUB SLT ISZERO PUSH2 0x6EB JUMPI PUSH2 0x6EA PUSH2 0x41F JUMP JUMPDEST JUMPDEST PUSH1 0x0 PUSH2 0x6F9 DUP9 DUP3 DUP10 ADD PUSH2 0x44A JUMP JUMPDEST SWAP6 POP POP PUSH1 0x20 DUP7 ADD CALLDATALOAD PUSH8 0xFFFFFFFFFFFFFFFF DUP2 GT ISZERO PUSH2 0x71A JUMPI PUSH2 0x719 PUSH2 0x424 JUMP JUMPDEST JUMPDEST PUSH2 0x726 DUP9 DUP3 DUP10 ADD PUSH2 0x6A1 JUMP JUMPDEST SWAP5 POP POP PUSH1 0x40 DUP7 ADD CALLDATALOAD PUSH8 0xFFFFFFFFFFFFFFFF DUP2 GT ISZERO PUSH2 0x747 JUMPI PUSH2 0x746 PUSH2 0x424 JUMP JUMPDEST JUMPDEST PUSH2 0x753 DUP9 DUP3 DUP10 ADD PUSH2 0x6A1 JUMP JUMPDEST SWAP4 POP POP PUSH1 0x60 DUP7 ADD CALLDATALOAD PUSH8 0xFFFFFFFFFFFFFFFF DUP2 GT ISZERO PUSH2 0x774 JUMPI PUSH2 0x773 PUSH2 0x424 JUMP JUMPDEST JUMPDEST PUSH2 0x780 DUP9 DUP3 DUP10 ADD PUSH2 0x6A1 JUMP JUMPDEST SWAP3 POP POP PUSH1 0x80 DUP7 ADD CALLDATALOAD PUSH8 0xFFFFFFFFFFFFFFFF DUP2 GT ISZERO PUSH2 0x7A1 JUMPI PUSH2 0x7A0 PUSH2 0x424 JUMP JUMPDEST JUMPDEST PUSH2 0x7AD DUP9 DUP3 DUP10 ADD PUSH2 0x6A1 JUMP JUMPDEST SWAP2 POP POP SWAP3 SWAP6 POP SWAP3 SWAP6 SWAP1 SWAP4 POP JUMP JUMPDEST PUSH32 0x4E487B7100000000000000000000000000000000000000000000000000000000 PUSH1 0x0 MSTORE PUSH1 0x22 PUSH1 0x4 MSTORE PUSH1 0x24 PUSH1 0x0 REVERT JUMPDEST PUSH1 0x0 PUSH1 0x2 DUP3 DIV SWAP1 POP PUSH1 0x1 DUP3 AND DUP1 PUSH2 0x801 JUMPI PUSH1 0x7F DUP3 AND SWAP2 POP JUMPDEST PUSH1 0x20 DUP3 LT DUP2 SUB PUSH2 0x814 JUMPI PUSH2 0x813 PUSH2 0x7BA JUMP JUMPDEST JUMPDEST POP SWAP2 SWAP1 POP JUMP JUMPDEST PUSH32 0x4F6E6C792061646D696E20686176652061636573730000000000000000000000 PUSH1 0x0 DUP3 ADD MSTORE POP JUMP JUMPDEST PUSH1 0x0 PUSH2 0x850 PUSH1 0x15 DUP4 PUSH2 0x4A6 JUMP JUMPDEST SWAP2 POP PUSH2 0x85B DUP3 PUSH2 0x81A JUMP JUMPDEST PUSH1 0x20 DUP3 ADD SWAP1 POP SWAP2 SWAP1 POP JUMP JUMPDEST PUSH1 0x0 PUSH1 0x20 DUP3 ADD SWAP1 POP DUP2 DUP2 SUB PUSH1 0x0 DUP4 ADD MSTORE PUSH2 0x87F DUP2 PUSH2 0x843 JUMP JUMPDEST SWAP1 POP SWAP2 SWAP1 POP JUMP JUMPDEST PUSH1 0x0 DUP2 SWAP1 POP DUP2 PUSH1 0x0 MSTORE PUSH1 0x20 PUSH1 0x0 KECCAK256 SWAP1 POP SWAP2 SWAP1 POP JUMP JUMPDEST PUSH1 0x0 PUSH1 0x20 PUSH1 0x1F DUP4 ADD DIV SWAP1 POP SWAP2 SWAP1 POP JUMP JUMPDEST PUSH1 0x0 DUP3 DUP3 SHL SWAP1 POP SWAP3 SWAP2 POP POP JUMP JUMPDEST PUSH1 0x0 PUSH1 0x8 DUP4 MUL PUSH2 0x8E8 PUSH32 0xFFFFFFFFFFFFFFFFFFFFFFFFFFFFFFFFFFFFFFFFFFFFFFFFFFFFFFFFFFFFFFFF DUP3 PUSH2 0x8AB JUMP JUMPDEST PUSH2 0x8F2 DUP7 DUP4 PUSH2 0x8AB JUMP JUMPDEST SWAP6 POP DUP1 NOT DUP5 AND SWAP4 POP DUP1 DUP7 AND DUP5 OR SWAP3 POP POP POP SWAP4 SWAP3 POP POP POP JUMP JUMPDEST PUSH1 0x0 DUP2 SWAP1 POP SWAP2 SWAP1 POP JUMP JUMPDEST PUSH1 0x0 PUSH2 0x92F PUSH2 0x92A PUSH2 0x925 DUP5 PUSH2 0x429 JUMP JUMPDEST PUSH2 0x90A JUMP JUMPDEST PUSH2 0x429 JUMP JUMPDEST SWAP1 POP SWAP2 SWAP1 POP JUMP JUMPDEST PUSH1 0x0 DUP2 SWAP1 POP SWAP2 SWAP1 POP JUMP JUMPDEST PUSH2 0x949 DUP4 PUSH2 0x914 JUMP JUMPDEST PUSH2 0x95D PUSH2 0x955 DUP3 PUSH2 0x936 JUMP JUMPDEST DUP5 DUP5 SLOAD PUSH2 0x8B8 JUMP JUMPDEST DUP3 SSTORE POP POP POP POP JUMP JUMPDEST PUSH1 0x0 SWAP1 JUMP JUMPDEST PUSH2 0x972 PUSH2 0x965 JUMP JUMPDEST PUSH2 0x97D DUP2 DUP5 DUP5 PUSH2 0x940 JUMP JUMPDEST POP POP POP JUMP JUMPDEST JUMPDEST DUP2 DUP2 LT ISZERO PUSH2 0x9A1 JUMPI PUSH2 0x996 PUSH1 0x0 DUP3 PUSH2 0x96A JUMP JUMPDEST PUSH1 0x1 DUP2 ADD SWAP1 POP PUSH2 0x983 JUMP JUMPDEST POP POP JUMP JUMPDEST PUSH1 0x1F DUP3 GT ISZERO PUSH2 0x9E6 JUMPI PUSH2 0x9B7 DUP2 PUSH2 0x886 JUMP JUMPDEST PUSH2 0x9C0 DUP5 PUSH2 0x89B JUMP JUMPDEST DUP2 ADD PUSH1 0x20 DUP6 LT ISZERO PUSH2 0x9CF JUMPI DUP2 SWAP1 POP JUMPDEST PUSH2 0x9E3 PUSH2 0x9DB DUP6 PUSH2 0x89B JUMP JUMPDEST DUP4 ADD DUP3 PUSH2 0x982 JUMP JUMPDEST POP POP JUMPDEST POP POP POP JUMP JUMPDEST PUSH1 0x0 DUP3 DUP3 SHR SWAP1 POP SWAP3 SWAP2 POP POP JUMP JUMPDEST PUSH1 0x0 PUSH2 0xA09 PUSH1 0x0 NOT DUP5 PUSH1 0x8 MUL PUSH2 0x9EB JUMP JUMPDEST NOT DUP1 DUP4 AND SWAP2 POP POP SWAP3 SWAP2 POP POP JUMP JUMPDEST PUSH1 0x0 PUSH2 0xA22 DUP4 DUP4 PUSH2 0x9F8 JUMP JUMPDEST SWAP2 POP DUP3 PUSH1 0x2 MUL DUP3 OR SWAP1 POP SWAP3 SWAP2 POP POP JUMP JUMPDEST PUSH2 0xA3B DUP3 PUSH2 0x49B JUMP JUMPDEST PUSH8 0xFFFFFFFFFFFFFFFF DUP2 GT ISZERO PUSH2 0xA54 JUMPI PUSH2 0xA53 PUSH2 0x5A4 JUMP JUMPDEST JUMPDEST PUSH2 0xA5E DUP3 SLOAD PUSH2 0x7E9 JUMP JUMPDEST PUSH2 0xA69 DUP3 DUP3 DUP6 PUSH2 0x9A5 JUMP JUMPDEST PUSH1 0x0 PUSH1 0x20 SWAP1 POP PUSH1 0x1F DUP4 GT PUSH1 0x1 DUP2 EQ PUSH2 0xA9C JUMPI PUSH1 0x0 DUP5 ISZERO PUSH2 0xA8A JUMPI DUP3 DUP8 ADD MLOAD SWAP1 POP JUMPDEST PUSH2 0xA94 DUP6 DUP3 PUSH2 0xA16 JUMP JUMPDEST DUP7 SSTORE POP PUSH2 0xAFC JUMP JUMPDEST PUSH1 0x1F NOT DUP5 AND PUSH2 0xAAA DUP7 PUSH2 0x886 JUMP JUMPDEST PUSH1 0x0 JUMPDEST DUP3 DUP2 LT ISZERO PUSH2 0xAD2 JUMPI DUP5 DUP10 ADD MLOAD DUP3 SSTORE PUSH1 0x1 DUP3 ADD SWAP2 POP PUSH1 0x20 DUP6 ADD SWAP5 POP PUSH1 0x20 DUP2 ADD SWAP1 POP PUSH2 0xAAD JUMP JUMPDEST DUP7 DUP4 LT ISZERO PUSH2 0xAEF JUMPI DUP5 DUP10 ADD MLOAD PUSH2 0xAEB PUSH1 0x1F DUP10 AND DUP3 PUSH2 0x9F8 JUMP JUMPDEST DUP4 SSTORE POP JUMPDEST PUSH1 0x1 PUSH1 0x2 DUP9 MUL ADD DUP9 SSTORE POP POP POP JUMPDEST POP POP POP POP POP POP JUMP INVALID LOG2 PUSH5 0x6970667358 0x22 SLT KECCAK256 LOG0 NOT 0xD9 0x4D 0xD1 MULMOD JUMPDEST SLOAD SWAP4 0x2D XOR PUSH4 0x43D0BB7F MSTORE PUSH0 CALLDATASIZE 0xC0 SWAP11 PUSH4 0x61F8EDD7 0xE1 0x2A 0xAD 0xD 0xD2 SWAP16 PUSH5 0x736F6C6343 STOP ADDMOD SHR STOP CALLER "
        },
        "methodIdentifiers": {
          "Certificate(uint256)": "4e9e195b",
          "Issue(uint256,string,string,string,string)": "b5b9ac32"
        }
      }
    }
  }
}