{
  "_format": "hh-sol-artifact-1",
  "contractName": "Certi",
  "sourceName": "contracts/SmartCertificate.sol",
  "abi": [
    {
      "inputs": [],
      "stateMutability": "nonpayable",
      "type": "constructor"
    },
    {
      "inputs": [
        {
          "internalType": "uint256",
          "name": "",
          "type": "uint256"
        }
      ],
      "name": "Certificate",
      "outputs": [
        {
          "internalType": "uint256",
          "name": "id",
          "type": "uint256"
        },
        {
          "internalType": "string",
          "name": "name",
          "type": "string"
        },
        {
          "internalType": "string",
          "name": "course",
          "type": "string"
        },
        {
          "internalType": "string",
          "name": "grade",
          "type": "string"
        },
        {
          "internalType": "string",
          "name": "date",
          "type": "string"
        }
      ],
      "stateMutability": "view",
      "type": "function"
    },
    {
      "inputs": [
        {
          "internalType": "uint256",
          "name": "_id",
          "type": "uint256"
        },
        {
          "internalType": "string",
          "name": "_name",
          "type": "string"
        },
        {
          "internalType": "string",
          "name": "_course",
          "type": "string"
        },
        {
          "internalType": "string",
          "name": "_grade",
          "type": "string"
        },
        {
          "internalType": "string",
          "name": "_date",
          "type": "string"
        }
      ],
      "name": "Issue",
      "outputs": [],
      "stateMutability": "nonpayable",
      "type": "function"
    }
  ],
  "bytecode": "0x6080604052348015600f57600080fd5b50336000806101000a81548173ffffffffffffffffffffffffffffffffffffffff021916908373ffffffffffffffffffffffffffffffffffffffff160217905550610b3a8061005f6000396000f3fe608060405234801561001057600080fd5b50600436106100365760003560e01c80634e9e195b1461003b578063b5b9ac321461006f575b600080fd5b6100556004803603810190610050919061045f565b61008b565b60405161006695949392919061052b565b60405180910390f35b610089600480360381019061008491906106cf565b6102e1565b005b60016020528060005260406000206000915090508060000154908060010180546100b4906107e9565b80601f01602080910402602001604051908101604052809291908181526020018280546100e0906107e9565b801561012d5780601f106101025761010080835404028352916020019161012d565b820191906000526020600020905b81548152906001019060200180831161011057829003601f168201915b505050505090806002018054610142906107e9565b80601f016020809104026020016040519081016040528092919081815260200182805461016e906107e9565b80156101bb5780601f10610190576101008083540402835291602001916101bb565b820191906000526020600020905b81548152906001019060200180831161019e57829003601f168201915b5050505050908060030180546101d0906107e9565b80601f01602080910402602001604051908101604052809291908181526020018280546101fc906107e9565b80156102495780601f1061021e57610100808354040283529160200191610249565b820191906000526020600020905b81548152906001019060200180831161022c57829003601f168201915b50505050509080600401805461025e906107e9565b80601f016020809104026020016040519081016040528092919081815260200182805461028a906107e9565b80156102d75780601f106102ac576101008083540402835291602001916102d7565b820191906000526020600020905b8154815290600101906020018083116102ba57829003601f168201915b5050505050905085565b60008054906101000a900473ffffffffffffffffffffffffffffffffffffffff1673ffffffffffffffffffffffffffffffffffffffff163373ffffffffffffffffffffffffffffffffffffffff161461036f576040517f08c379a000000000000000000000000000000000000000000000000000000000815260040161036690610866565b60405180910390fd5b6040518060a0016040528086815260200185815260200184815260200183815260200182815250600160008781526020019081526020016000206000820151816000015560208201518160010190816103c89190610a32565b5060408201518160020190816103de9190610a32565b5060608201518160030190816103f49190610a32565b50608082015181600401908161040a9190610a32565b509050505050505050565b6000604051905090565b600080fd5b600080fd5b6000819050919050565b61043c81610429565b811461044757600080fd5b50565b60008135905061045981610433565b92915050565b6000602082840312156104755761047461041f565b5b60006104838482850161044a565b91505092915050565b61049581610429565b82525050565b600081519050919050565b600082825260208201905092915050565b60005b838110156104d55780820151818401526020810190506104ba565b60008484015250505050565b6000601f19601f8301169050919050565b60006104fd8261049b565b61050781856104a6565b93506105178185602086016104b7565b610520816104e1565b840191505092915050565b600060a082019050610540600083018861048c565b818103602083015261055281876104f2565b9050818103604083015261056681866104f2565b9050818103606083015261057a81856104f2565b9050818103608083015261058e81846104f2565b90509695505050505050565b600080fd5b600080fd5b7f4e487b7100000000000000000000000000000000000000000000000000000000600052604160045260246000fd5b6105dc826104e1565b810181811067ffffffffffffffff821117156105fb576105fa6105a4565b5b80604052505050565b600061060e610415565b905061061a82826105d3565b919050565b600067ffffffffffffffff82111561063a576106396105a4565b5b610643826104e1565b9050602081019050919050565b82818337600083830152505050565b600061067261066d8461061f565b610604565b90508281526020810184848401111561068e5761068d61059f565b5b610699848285610650565b509392505050565b600082601f8301126106b6576106b561059a565b5b81356106c684826020860161065f565b91505092915050565b600080600080600060a086880312156106eb576106ea61041f565b5b60006106f98882890161044a565b955050602086013567ffffffffffffffff81111561071a57610719610424565b5b610726888289016106a1565b945050604086013567ffffffffffffffff81111561074757610746610424565b5b610753888289016106a1565b935050606086013567ffffffffffffffff81111561077457610773610424565b5b610780888289016106a1565b925050608086013567ffffffffffffffff8111156107a1576107a0610424565b5b6107ad888289016106a1565b9150509295509295909350565b7f4e487b7100000000000000000000000000000000000000000000000000000000600052602260045260246000fd5b6000600282049050600182168061080157607f821691505b602082108103610814576108136107ba565b5b50919050565b7f4f6e6c792061646d696e20686176652061636573730000000000000000000000600082015250565b60006108506015836104a6565b915061085b8261081a565b602082019050919050565b6000602082019050818103600083015261087f81610843565b9050919050565b60008190508160005260206000209050919050565b60006020601f8301049050919050565b600082821b905092915050565b6000600883026108e87fffffffffffffffffffffffffffffffffffffffffffffffffffffffffffffffff826108ab565b6108f286836108ab565b95508019841693508086168417925050509392505050565b6000819050919050565b600061092f61092a61092584610429565b61090a565b610429565b9050919050565b6000819050919050565b61094983610914565b61095d61095582610936565b8484546108b8565b825550505050565b600090565b610972610965565b61097d818484610940565b505050565b5b818110156109a15761099660008261096a565b600181019050610983565b5050565b601f8211156109e6576109b781610886565b6109c08461089b565b810160208510156109cf578190505b6109e36109db8561089b565b830182610982565b50505b505050565b600082821c905092915050565b6000610a09600019846008026109eb565b1980831691505092915050565b6000610a2283836109f8565b9150826002028217905092915050565b610a3b8261049b565b67ffffffffffffffff811115610a5457610a536105a4565b5b610a5e82546107e9565b610a698282856109a5565b600060209050601f831160018114610a9c5760008415610a8a578287015190505b610a948582610a16565b865550610afc565b601f198416610aaa86610886565b60005b82811015610ad257848901518255600182019150602085019450602081019050610aad565b86831015610aef5784890151610aeb601f8916826109f8565b8355505b6001600288020188555050505b50505050505056fea2646970667358221220a019d94dd1095b54932d186343d0bb7f525f36c09a6361f8edd7e12aad0dd29f64736f6c634300081c0033",
  "linkReferences": {},
  "deployedLinkReferences": {}
}